{
  "contractName": "Locking",
  "abi": [
    {
      "constant": false,
      "inputs": [
        {
          "name": "_partnerId",
          "type": "uint256"
        }
      ],
      "name": "addPartner",
      "outputs": [
        {
          "name": "",
          "type": "bool"
        }
      ],
      "payable": false,
      "stateMutability": "nonpayable",
      "type": "function"
    },
    {
      "constant": true,
      "inputs": [
        {
          "name": "_addr",
          "type": "address"
        }
      ],
      "name": "getOperator",
      "outputs": [
        {
          "name": "",
          "type": "bool"
        }
      ],
      "payable": false,
      "stateMutability": "view",
      "type": "function"
    },
    {
      "constant": false,
      "inputs": [],
      "name": "renounceOwnership",
      "outputs": [],
      "payable": false,
      "stateMutability": "nonpayable",
      "type": "function"
    },
    {
      "constant": false,
      "inputs": [
        {
          "name": "_partnerId",
          "type": "uint256"
        }
      ],
      "name": "removePartner",
      "outputs": [
        {
          "name": "",
          "type": "bool"
        }
      ],
      "payable": false,
      "stateMutability": "nonpayable",
      "type": "function"
    },
    {
      "constant": true,
      "inputs": [
        {
          "name": "_id",
          "type": "uint256"
        }
      ],
      "name": "getPartner",
      "outputs": [
        {
          "name": "",
          "type": "bool"
        }
      ],
      "payable": false,
      "stateMutability": "view",
      "type": "function"
    },
    {
      "constant": true,
      "inputs": [],
      "name": "owner",
      "outputs": [
        {
          "name": "",
          "type": "address"
        }
      ],
      "payable": false,
      "stateMutability": "view",
      "type": "function"
    },
    {
      "constant": true,
      "inputs": [],
      "name": "isOwner",
      "outputs": [
        {
          "name": "",
          "type": "bool"
        }
      ],
      "payable": false,
      "stateMutability": "view",
      "type": "function"
    },
    {
      "constant": false,
      "inputs": [
        {
          "name": "_operatorAddr",
          "type": "address"
        }
      ],
      "name": "addOperator",
      "outputs": [
        {
          "name": "",
          "type": "bool"
        }
      ],
      "payable": false,
      "stateMutability": "nonpayable",
      "type": "function"
    },
    {
      "constant": false,
      "inputs": [
        {
          "name": "_operatorAddr",
          "type": "address"
        }
      ],
      "name": "removeOperator",
      "outputs": [
        {
          "name": "",
          "type": "bool"
        }
      ],
      "payable": false,
      "stateMutability": "nonpayable",
      "type": "function"
    },
    {
      "constant": false,
      "inputs": [
        {
          "name": "newOwner",
          "type": "address"
        }
      ],
      "name": "transferOwnership",
      "outputs": [],
      "payable": false,
      "stateMutability": "nonpayable",
      "type": "function"
    },
    {
      "inputs": [],
      "payable": false,
      "stateMutability": "nonpayable",
      "type": "constructor"
    },
    {
      "anonymous": false,
      "inputs": [
        {
          "indexed": true,
          "name": "poolId",
          "type": "uint256"
        },
        {
          "indexed": false,
          "name": "name",
          "type": "string"
        },
        {
          "indexed": true,
          "name": "tokenAddr",
          "type": "address"
        },
        {
          "indexed": false,
          "name": "reserveTokenAmount",
          "type": "uint256"
        },
        {
          "indexed": false,
          "name": "needWhitelist",
          "type": "bool"
        }
      ],
      "name": "CreatePool",
      "type": "event"
    },
    {
      "anonymous": false,
      "inputs": [
        {
          "indexed": true,
          "name": "poolId",
          "type": "uint256"
        },
        {
          "indexed": false,
          "name": "newAmount",
          "type": "uint256"
        },
        {
          "indexed": false,
          "name": "availableAmount",
          "type": "uint256"
        }
      ],
      "name": "ChangePoolReserveAmount",
      "type": "event"
    },
    {
      "anonymous": false,
      "inputs": [
        {
          "indexed": true,
          "name": "poolId",
          "type": "uint256"
        },
        {
          "indexed": false,
          "name": "needWhitelist",
          "type": "bool"
        }
      ],
      "name": "ChangePoolWhitelist",
      "type": "event"
    },
    {
      "anonymous": false,
      "inputs": [
        {
          "indexed": true,
          "name": "poolId",
          "type": "uint256"
        },
        {
          "indexed": false,
          "name": "isClosed",
          "type": "bool"
        }
      ],
      "name": "ChangePoolStatus",
      "type": "event"
    },
    {
      "anonymous": false,
      "inputs": [
        {
          "indexed": true,
          "name": "planId",
          "type": "uint256"
        },
        {
          "indexed": true,
          "name": "poolId",
          "type": "uint256"
        },
        {
          "indexed": false,
          "name": "isClosed",
          "type": "bool"
        }
      ],
      "name": "ChangePlanStatus",
      "type": "event"
    },
    {
      "anonymous": false,
      "inputs": [
        {
          "indexed": true,
          "name": "planId",
          "type": "uint256"
        },
        {
          "indexed": true,
          "name": "poolId",
          "type": "uint256"
        },
        {
          "indexed": false,
          "name": "lockDuration",
          "type": "uint256"
        },
        {
          "indexed": false,
          "name": "annualInterestRate",
          "type": "uint256"
        },
        {
          "indexed": false,
          "name": "interestRate",
          "type": "uint256"
        }
      ],
      "name": "AddPlan",
      "type": "event"
    },
    {
      "anonymous": false,
      "inputs": [
        {
          "indexed": false,
          "name": "addr",
          "type": "address"
        }
      ],
      "name": "AddToWhitelist",
      "type": "event"
    },
    {
      "anonymous": false,
      "inputs": [
        {
          "indexed": false,
          "name": "addr",
          "type": "address"
        }
      ],
      "name": "RemoveFromWhitelist",
      "type": "event"
    },
    {
      "anonymous": false,
      "inputs": [
        {
          "indexed": true,
          "name": "poolId",
          "type": "uint256"
        },
        {
          "indexed": true,
          "name": "poolOwner",
          "type": "address"
        },
        {
          "indexed": true,
          "name": "tokenAddress",
          "type": "address"
        }
      ],
      "name": "CreatePool",
      "type": "event"
    },
    {
      "anonymous": false,
      "inputs": [
        {
          "indexed": true,
          "name": "poolId",
          "type": "uint256"
        },
        {
          "indexed": true,
          "name": "planId",
          "type": "uint256"
        },
        {
          "indexed": false,
          "name": "partnerId",
          "type": "uint256"
        },
        {
          "indexed": false,
          "name": "depositId",
          "type": "uint256"
        },
        {
          "indexed": true,
          "name": "depositor",
          "type": "address"
        },
        {
          "indexed": false,
          "name": "tokenAddr",
          "type": "address"
        },
        {
          "indexed": false,
          "name": "tokenAmount",
          "type": "uint256"
        },
        {
          "indexed": false,
          "name": "depositAt",
          "type": "uint256"
        }
      ],
      "name": "Deposit",
      "type": "event"
    },
    {
      "anonymous": false,
      "inputs": [
        {
          "indexed": true,
          "name": "poolId",
          "type": "uint256"
        },
        {
          "indexed": true,
          "name": "planId",
          "type": "uint256"
        },
        {
          "indexed": false,
          "name": "partnerId",
          "type": "uint256"
        },
        {
          "indexed": true,
          "name": "depositId",
          "type": "uint256"
        },
        {
          "indexed": false,
          "name": "tokenAddr",
          "type": "address"
        },
        {
          "indexed": false,
          "name": "depositorAddr",
          "type": "address"
        },
        {
          "indexed": false,
          "name": "recipientAddr",
          "type": "address"
        },
        {
          "indexed": false,
          "name": "amount",
          "type": "uint256"
        }
      ],
      "name": "Withdraw",
      "type": "event"
    },
    {
      "anonymous": false,
      "inputs": [
        {
          "indexed": false,
          "name": "poolOwnerAddr",
          "type": "address"
        }
      ],
      "name": "ActivatePoolOwner",
      "type": "event"
    },
    {
      "anonymous": false,
      "inputs": [
        {
          "indexed": false,
          "name": "poolOwnerAddr",
          "type": "address"
        }
      ],
      "name": "DeactivatePoolOwner",
      "type": "event"
    },
    {
      "anonymous": false,
      "inputs": [
        {
          "indexed": false,
          "name": "operatorAddr",
          "type": "address"
        }
      ],
      "name": "AddOperator",
      "type": "event"
    },
    {
      "anonymous": false,
      "inputs": [
        {
          "indexed": false,
          "name": "operatorAddr",
          "type": "address"
        }
      ],
      "name": "RemoveOperator",
      "type": "event"
    },
    {
      "anonymous": false,
      "inputs": [
        {
          "indexed": false,
          "name": "partnerId",
          "type": "uint256"
        }
      ],
      "name": "AddPartner",
      "type": "event"
    },
    {
      "anonymous": false,
      "inputs": [
        {
          "indexed": false,
          "name": "partnerId",
          "type": "uint256"
        }
      ],
      "name": "RemovePartner",
      "type": "event"
    },
    {
      "anonymous": false,
      "inputs": [
        {
          "indexed": true,
          "name": "previousOwner",
          "type": "address"
        },
        {
          "indexed": true,
          "name": "newOwner",
          "type": "address"
        }
      ],
      "name": "OwnershipTransferred",
      "type": "event"
    },
    {
      "constant": false,
      "inputs": [
        {
          "name": "_poolId",
          "type": "uint256"
        },
        {
          "name": "_poolName",
          "type": "string"
        },
        {
          "name": "_tokenAddr",
          "type": "address"
        },
        {
          "name": "_reserveTokenAmount",
          "type": "uint256"
        },
        {
          "name": "_needWhitelist",
          "type": "bool"
        }
      ],
      "name": "createPool",
      "outputs": [
        {
          "name": "",
          "type": "uint256"
        }
      ],
      "payable": false,
      "stateMutability": "nonpayable",
      "type": "function"
    },
    {
      "constant": false,
      "inputs": [
        {
          "name": "_poolId",
          "type": "uint256"
        },
        {
          "name": "_newAmount",
          "type": "uint256"
        }
      ],
      "name": "changePoolReserveAmount",
      "outputs": [
        {
          "name": "",
          "type": "bool"
        }
      ],
      "payable": false,
      "stateMutability": "nonpayable",
      "type": "function"
    },
    {
      "constant": false,
      "inputs": [
        {
          "name": "_poolId",
          "type": "uint256"
        },
        {
          "name": "_needWhitelist",
          "type": "bool"
        }
      ],
      "name": "changePoolWhitelistNeed",
      "outputs": [
        {
          "name": "",
          "type": "bool"
        }
      ],
      "payable": false,
      "stateMutability": "nonpayable",
      "type": "function"
    },
    {
      "constant": false,
      "inputs": [
        {
          "name": "_poolId",
          "type": "uint256"
        },
        {
          "name": "_isClosed",
          "type": "bool"
        }
      ],
      "name": "changePoolStatus",
      "outputs": [
        {
          "name": "",
          "type": "bool"
        }
      ],
      "payable": false,
      "stateMutability": "nonpayable",
      "type": "function"
    },
    {
      "constant": false,
      "inputs": [
        {
          "name": "_poolId",
          "type": "uint256"
        },
        {
          "name": "_planId",
          "type": "uint256"
        },
        {
          "name": "_lockDuration",
          "type": "uint256"
        },
        {
          "name": "_annualInterestRate",
          "type": "uint256"
        }
      ],
      "name": "addPlan",
      "outputs": [
        {
          "name": "planId",
          "type": "uint256"
        }
      ],
      "payable": false,
      "stateMutability": "nonpayable",
      "type": "function"
    },
    {
      "constant": false,
      "inputs": [
        {
          "name": "_planId",
          "type": "uint256"
        },
        {
          "name": "_isClosed",
          "type": "bool"
        }
      ],
      "name": "changePlanStatus",
      "outputs": [
        {
          "name": "",
          "type": "bool"
        }
      ],
      "payable": false,
      "stateMutability": "nonpayable",
      "type": "function"
    },
    {
      "constant": false,
      "inputs": [
        {
          "name": "_addr",
          "type": "address"
        }
      ],
      "name": "addToWhitelist",
      "outputs": [
        {
          "name": "",
          "type": "bool"
        }
      ],
      "payable": false,
      "stateMutability": "nonpayable",
      "type": "function"
    },
    {
      "constant": false,
      "inputs": [
        {
          "name": "_addr",
          "type": "address"
        }
      ],
      "name": "removeFromWhitelist",
      "outputs": [
        {
          "name": "",
          "type": "bool"
        }
      ],
      "payable": false,
      "stateMutability": "nonpayable",
      "type": "function"
    },
    {
      "constant": false,
      "inputs": [
        {
          "name": "_poolId",
          "type": "uint256"
        },
        {
          "name": "_partnerId",
          "type": "uint256"
        },
        {
          "name": "_planId",
          "type": "uint256"
        },
        {
          "name": "_tokenAmount",
          "type": "uint256"
        }
      ],
      "name": "deposit",
      "outputs": [
        {
          "name": "depositId",
          "type": "uint256"
        }
      ],
      "payable": false,
      "stateMutability": "nonpayable",
      "type": "function"
    },
    {
      "constant": false,
      "inputs": [
        {
          "name": "_depositId",
          "type": "uint256"
        },
        {
          "name": "_recipientAddr",
          "type": "address"
        }
      ],
      "name": "withdraw",
      "outputs": [
        {
          "name": "",
          "type": "bool"
        }
      ],
      "payable": false,
      "stateMutability": "nonpayable",
      "type": "function"
    },
    {
      "constant": true,
      "inputs": [
        {
          "name": "_poolId",
          "type": "uint256"
        }
      ],
      "name": "getPoolInfo",
      "outputs": [
        {
          "name": "",
          "type": "address"
        },
        {
          "name": "",
          "type": "uint256"
        },
        {
          "name": "",
          "type": "uint256"
        },
        {
          "name": "",
          "type": "bool"
        },
        {
          "name": "",
          "type": "bool"
        }
      ],
      "payable": false,
      "stateMutability": "view",
      "type": "function"
    },
    {
      "constant": true,
      "inputs": [
        {
          "name": "_planId",
          "type": "uint256"
        }
      ],
      "name": "getPlanInfo",
      "outputs": [
        {
          "name": "",
          "type": "uint256"
        },
        {
          "name": "",
          "type": "uint256"
        },
        {
          "name": "",
          "type": "uint256"
        },
        {
          "name": "",
          "type": "uint256"
        },
        {
          "name": "",
          "type": "bool"
        }
      ],
      "payable": false,
      "stateMutability": "view",
      "type": "function"
    },
    {
      "constant": true,
      "inputs": [
        {
          "name": "_depositId",
          "type": "uint256"
        }
      ],
      "name": "getDepositInfo",
      "outputs": [
        {
          "name": "",
          "type": "uint256"
        },
        {
          "name": "",
          "type": "uint256"
        },
        {
          "name": "",
          "type": "uint256"
        },
        {
          "name": "",
          "type": "address"
        },
        {
          "name": "",
          "type": "address"
        },
        {
          "name": "",
          "type": "uint256"
        },
        {
          "name": "",
          "type": "uint256"
        },
        {
          "name": "",
          "type": "uint256"
        },
        {
          "name": "",
          "type": "bool"
        }
      ],
      "payable": false,
      "stateMutability": "view",
      "type": "function"
    },
    {
      "constant": true,
      "inputs": [
        {
          "name": "_addr",
          "type": "address"
        }
      ],
      "name": "getWhitelist",
      "outputs": [
        {
          "name": "",
          "type": "bool"
        }
      ],
      "payable": false,
      "stateMutability": "view",
      "type": "function"
    }
  ],
  "bytecode": "0x60806040523480156200001157600080fd5b506200002b620000ec640100000000026401000000009004565b6000806101000a81548173ffffffffffffffffffffffffffffffffffffffff021916908373ffffffffffffffffffffffffffffffffffffffff1602179055506000809054906101000a900473ffffffffffffffffffffffffffffffffffffffff1673ffffffffffffffffffffffffffffffffffffffff16600073ffffffffffffffffffffffffffffffffffffffff167f8be0079c531659141344cd1fd0a4f28419497f9722a3daafe3b4186f6b6457e060405160405180910390a3620000f4565b600033905090565b61484480620001046000396000f3fe60806040526004361061013d576000357c0100000000000000000000000000000000000000000000000000000000900463ffffffff168062f714ce146101425780630bfd351c146101b55780630d3738cd146102145780632505c3d9146102715780632f380b35146102de57806330edc0f51461037d57806337e222ff146103e65780635230e15b146104555780635328c2bf146104a85780635865c60c1461058b5780635d8e6397146105f4578063715018a6146106535780637d1d8cc01461066a5780637fc96619146106bd5780638ab1d681146107105780638da5cb5b146107795780638f32d59b146107d057806392e97ad6146107ff5780639870d7fe1461086c578063a5ec07eb146108d5578063ac8a584a146109f1578063d07f43e214610a5a578063e43252d714610ab9578063f2fde38b14610b22575b600080fd5b34801561014e57600080fd5b5061019b6004803603604081101561016557600080fd5b8101908080359060200190929190803573ffffffffffffffffffffffffffffffffffffffff169060200190929190505050610b73565b604051808215151515815260200191505060405180910390f35b3480156101c157600080fd5b506101fa600480360360408110156101d857600080fd5b8101908080359060200190929190803515159060200190929190505050610fca565b604051808215151515815260200191505060405180910390f35b34801561022057600080fd5b506102576004803603604081101561023757600080fd5b810190808035906020019092919080359060200190929190505050611209565b604051808215151515815260200191505060405180910390f35b34801561027d57600080fd5b506102c86004803603608081101561029457600080fd5b8101908080359060200190929190803590602001909291908035906020019092919080359060200190929190505050611542565b6040518082815260200191505060405180910390f35b3480156102ea57600080fd5b506103176004803603602081101561030157600080fd5b8101908080359060200190929190505050611d63565b604051808673ffffffffffffffffffffffffffffffffffffffff1673ffffffffffffffffffffffffffffffffffffffff16815260200185815260200184815260200183151515158152602001821515151581526020019550505050505060405180910390f35b34801561038957600080fd5b506103cc600480360360208110156103a057600080fd5b81019080803573ffffffffffffffffffffffffffffffffffffffff169060200190929190505050611de8565b604051808215151515815260200191505060405180910390f35b3480156103f257600080fd5b5061041f6004803603602081101561040957600080fd5b8101908080359060200190929190505050611e3e565b60405180868152602001858152602001848152602001838152602001821515151581526020019550505050505060405180910390f35b34801561046157600080fd5b5061048e6004803603602081101561047857600080fd5b8101908080359060200190929190505050611e96565b604051808215151515815260200191505060405180910390f35b3480156104b457600080fd5b506104e1600480360360208110156104cb57600080fd5b8101908080359060200190929190505050612098565b604051808a81526020018981526020018881526020018773ffffffffffffffffffffffffffffffffffffffff1673ffffffffffffffffffffffffffffffffffffffff1681526020018673ffffffffffffffffffffffffffffffffffffffff1673ffffffffffffffffffffffffffffffffffffffff16815260200185815260200184815260200183815260200182151515158152602001995050505050505050505060405180910390f35b34801561059757600080fd5b506105da600480360360208110156105ae57600080fd5b81019080803573ffffffffffffffffffffffffffffffffffffffff169060200190929190505050612198565b604051808215151515815260200191505060405180910390f35b34801561060057600080fd5b506106396004803603604081101561061757600080fd5b81019080803590602001909291908035151590602001909291905050506121ee565b604051808215151515815260200191505060405180910390f35b34801561065f57600080fd5b506106686123e9565b005b34801561067657600080fd5b506106a36004803603602081101561068d57600080fd5b8101908080359060200190929190505050612524565b604051808215151515815260200191505060405180910390f35b3480156106c957600080fd5b506106f6600480360360208110156106e057600080fd5b810190808035906020019092919050505061271c565b604051808215151515815260200191505060405180910390f35b34801561071c57600080fd5b5061075f6004803603602081101561073357600080fd5b81019080803573ffffffffffffffffffffffffffffffffffffffff169060200190929190505050612746565b604051808215151515815260200191505060405180910390f35b34801561078557600080fd5b5061078e6129cb565b604051808273ffffffffffffffffffffffffffffffffffffffff1673ffffffffffffffffffffffffffffffffffffffff16815260200191505060405180910390f35b3480156107dc57600080fd5b506107e56129f4565b604051808215151515815260200191505060405180910390f35b34801561080b57600080fd5b506108566004803603608081101561082257600080fd5b8101908080359060200190929190803590602001909291908035906020019092919080359060200190929190505050612a52565b6040518082815260200191505060405180910390f35b34801561087857600080fd5b506108bb6004803603602081101561088f57600080fd5b81019080803573ffffffffffffffffffffffffffffffffffffffff169060200190929190505050612f8c565b604051808215151515815260200191505060405180910390f35b3480156108e157600080fd5b506109db600480360360a08110156108f857600080fd5b81019080803590602001909291908035906020019064010000000081111561091f57600080fd5b82018360208201111561093157600080fd5b8035906020019184600183028401116401000000008311171561095357600080fd5b91908080601f016020809104026020016040519081016040528093929190818152602001838380828437600081840152601f19601f820116905080830192505050505050509192919290803573ffffffffffffffffffffffffffffffffffffffff1690602001909291908035906020019092919080351515906020019092919050505061318f565b6040518082815260200191505060405180910390f35b3480156109fd57600080fd5b50610a4060048036036020811015610a1457600080fd5b81019080803573ffffffffffffffffffffffffffffffffffffffff1690602001909291905050506136c4565b604051808215151515815260200191505060405180910390f35b348015610a6657600080fd5b50610a9f60048036036040811015610a7d57600080fd5b81019080803590602001909291908035151590602001909291905050506138be565b604051808215151515815260200191505060405180910390f35b348015610ac557600080fd5b50610b0860048036036020811015610adc57600080fd5b81019080803573ffffffffffffffffffffffffffffffffffffffff169060200190929190505050613afd565b604051808215151515815260200191505060405180910390f35b348015610b2e57600080fd5b50610b7160048036036020811015610b4557600080fd5b81019080803573ffffffffffffffffffffffffffffffffffffffff169060200190929190505050613d83565b005b600080600684815481101515610b8557fe5b906000526020600020906007020190503373ffffffffffffffffffffffffffffffffffffffff168160000160009054906101000a900473ffffffffffffffffffffffffffffffffffffffff1673ffffffffffffffffffffffffffffffffffffffff16141515610c5c576040517f08c379a000000000000000000000000000000000000000000000000000000000815260040180806020018281038252600d8152602001807f4e6f74206465706f7369746f720000000000000000000000000000000000000081525060200191505060405180910390fd5b8060060160009054906101000a900460ff16151515610ce3576040517f08c379a00000000000000000000000000000000000000000000000000000000081526004018080602001828103825260098152602001807f497320636c6f736564000000000000000000000000000000000000000000000081525060200191505060405180910390fd5b600060046000836002015481526020019081526020016000209050600060056000846001015481526020019081526020016000209050600083600501548260010154019050428111151515610da0576040517f08c379a00000000000000000000000000000000000000000000000000000000081526004018080602001828103825260088152602001807f496d6d617475726500000000000000000000000000000000000000000000000081525060200191505060405180910390fd5b6000610dd58460010160009054906101000a900473ffffffffffffffffffffffffffffffffffffffff16888760040154613e0b565b9050801515610e4c576040517f08c379a00000000000000000000000000000000000000000000000000000000081526004018080602001828103825260168152602001807f43616e206e6f74207472616e7366657220746f6b656e0000000000000000000081525060200191505060405180910390fd5b6001600689815481101515610e5d57fe5b906000526020600020906007020160060160006101000a81548160ff02191690831515021790555087856001015486600201547f15c48a277cec7d54ce63618ee5ecca1907c5e4a7d599126eb170ca9123e17ba588600301548860010160009054906101000a900473ffffffffffffffffffffffffffffffffffffffff168a60000160009054906101000a900473ffffffffffffffffffffffffffffffffffffffff168d8c60040154604051808681526020018573ffffffffffffffffffffffffffffffffffffffff1673ffffffffffffffffffffffffffffffffffffffff1681526020018473ffffffffffffffffffffffffffffffffffffffff1673ffffffffffffffffffffffffffffffffffffffff1681526020018373ffffffffffffffffffffffffffffffffffffffff1673ffffffffffffffffffffffffffffffffffffffff1681526020018281526020019550505050505060405180910390a460019550505050505092915050565b6000600160003373ffffffffffffffffffffffffffffffffffffffff1673ffffffffffffffffffffffffffffffffffffffff16815260200190815260200160002060009054906101000a900460ff168061105657506110276129cb565b73ffffffffffffffffffffffffffffffffffffffff163373ffffffffffffffffffffffffffffffffffffffff16145b15156110ca576040517f08c379a00000000000000000000000000000000000000000000000000000000081526004018080602001828103825260098152602001807f4e6f742061646d696e000000000000000000000000000000000000000000000081525060200191505060405180910390fd5b6000600460008581526020019081526020016000209050600073ffffffffffffffffffffffffffffffffffffffff168160000160009054906101000a900473ffffffffffffffffffffffffffffffffffffffff1673ffffffffffffffffffffffffffffffffffffffff16141515156111aa576040517f08c379a00000000000000000000000000000000000000000000000000000000081526004018080602001828103825260138152602001807f506f6f6c20646f6573206e6f742065786973740000000000000000000000000081525060200191505060405180910390fd5b828160040160006101000a81548160ff021916908315150217905550837f8ca41f7914a3461ddf1b0daa92ec1c6e1571c5b1147a20155fa88c6c3b28575784604051808215151515815260200191505060405180910390a25092915050565b6000600160003373ffffffffffffffffffffffffffffffffffffffff1673ffffffffffffffffffffffffffffffffffffffff16815260200190815260200160002060009054906101000a900460ff168061129557506112666129cb565b73ffffffffffffffffffffffffffffffffffffffff163373ffffffffffffffffffffffffffffffffffffffff16145b1515611309576040517f08c379a00000000000000000000000000000000000000000000000000000000081526004018080602001828103825260098152602001807f4e6f742061646d696e000000000000000000000000000000000000000000000081525060200191505060405180910390fd5b6000600460008581526020019081526020016000209050600073ffffffffffffffffffffffffffffffffffffffff168160000160009054906101000a900473ffffffffffffffffffffffffffffffffffffffff1673ffffffffffffffffffffffffffffffffffffffff16141515156113e9576040517f08c379a00000000000000000000000000000000000000000000000000000000081526004018080602001828103825260138152602001807f506f6f6c20646f6573206e6f742065786973740000000000000000000000000081525060200191505060405180910390fd5b80600201548310151561143657600061140f826002015485613f9990919063ffffffff16565b9050611428818360030154613fe390919063ffffffff16565b8260030181905550506114ee565b600061144f848360020154613f9990919063ffffffff16565b9050816003015481111515156114cd576040517f08c379a00000000000000000000000000000000000000000000000000000000081526004018080602001828103825260188152602001807f52656475636520616d6f756e7420697320746f6f20626967000000000000000081525060200191505060405180910390fd5b6114e4818360030154613f9990919063ffffffff16565b8260030181905550505b828160020181905550837fdf016ba57a58037227994bc461bcdea85ec36ddf0b5ef267291c8b1c961813f4848360030154604051808381526020018281526020019250505060405180910390a25092915050565b600080600460008781526020019081526020016000209050600073ffffffffffffffffffffffffffffffffffffffff168160000160009054906101000a900473ffffffffffffffffffffffffffffffffffffffff1673ffffffffffffffffffffffffffffffffffffffff1614151515611623576040517f08c379a00000000000000000000000000000000000000000000000000000000081526004018080602001828103825260138152602001807f506f6f6c20646f6573206e6f742065786973740000000000000000000000000081525060200191505060405180910390fd5b8060040160009054906101000a900460ff161515156116aa576040517f08c379a000000000000000000000000000000000000000000000000000000000815260040180806020018281038252600e8152602001807f506f6f6c20697320636c6f73656400000000000000000000000000000000000081525060200191505060405180910390fd5b8060040160019054906101000a900460ff161561178357600360003373ffffffffffffffffffffffffffffffffffffffff1673ffffffffffffffffffffffffffffffffffffffff16815260200190815260200160002060009054906101000a900460ff161515611782576040517f08c379a00000000000000000000000000000000000000000000000000000000081526004018080602001828103825260108152602001807f4e6f7420696e2077686974656c6973740000000000000000000000000000000081525060200191505060405180910390fd5b5b600060056000868152602001908152602001600020905060008160010154111515611816576040517f08c379a00000000000000000000000000000000000000000000000000000000081526004018080602001828103825260138152602001807f506c616e20646f6573206e6f742065786973740000000000000000000000000081525060200191505060405180910390fd5b8060040160009054906101000a900460ff1615151561189d576040517f08c379a000000000000000000000000000000000000000000000000000000000815260040180806020018281038252600e8152602001807f506c616e20697320636c6f73656400000000000000000000000000000000000081525060200191505060405180910390fd5b6002600087815260200190815260200160002060009054906101000a900460ff161515611932576040517f08c379a00000000000000000000000000000000000000000000000000000000081526004018080602001828103825260168152602001807f506172746e657220646f6573206e6f742065786973740000000000000000000081525060200191505060405180910390fd5b600061195f61271061195187856003015461406d90919063ffffffff16565b61413a90919063ffffffff16565b90506000811115156119d9576040517f08c379a000000000000000000000000000000000000000000000000000000000815260040180806020018281038252601b8152602001807f4465706f73697420616d6f756e7420697320746f6f20736d616c6c000000000081525060200191505060405180910390fd5b82600301548111151515611a7b576040517f08c379a00000000000000000000000000000000000000000000000000000000081526004018080602001828103825260238152602001807f496e73756666696369656e74206176616961626c6520746f6b656e20696e207081526020017f6f6f6c000000000000000000000000000000000000000000000000000000000081525060400191505060405180910390fd5b611a92818460030154613f9990919063ffffffff16565b83600301819055506000611acc8460010160009054906101000a900473ffffffffffffffffffffffffffffffffffffffff16333089614184565b9050801515611b43576040517f08c379a00000000000000000000000000000000000000000000000000000000081526004018080602001828103825260168152602001807f43616e206e6f74207472616e7366657220746f6b656e0000000000000000000081525060200191505060405180910390fd5b611b4b614664565b33816000019073ffffffffffffffffffffffffffffffffffffffff16908173ffffffffffffffffffffffffffffffffffffffff168152505089816040018181525050878160200181815250508881606001818152505086816080018181525050428160a001818152505060068054905095506006819080600181540180825580915050906001820390600052602060002090600702016000909192909190915060008201518160000160006101000a81548173ffffffffffffffffffffffffffffffffffffffff021916908373ffffffffffffffffffffffffffffffffffffffff1602179055506020820151816001015560408201518160020155606082015181600301556080820151816004015560a0820151816005015560c08201518160060160006101000a81548160ff021916908315150217905550505050806000015173ffffffffffffffffffffffffffffffffffffffff16888b7f680f93f71170ca5880b94ffda1b3984aa3313b55aa43ef9b9d928c569a5e14ed8c8a8a60010160009054906101000a900473ffffffffffffffffffffffffffffffffffffffff1687608001518860a00151604051808681526020018581526020018473ffffffffffffffffffffffffffffffffffffffff1673ffffffffffffffffffffffffffffffffffffffff1681526020018381526020018281526020019550505050505060405180910390a48595505050505050949350505050565b6000806000806000806004600088815260200190815260200160002090508060010160009054906101000a900473ffffffffffffffffffffffffffffffffffffffff16816002015482600301548360040160009054906101000a900460ff168460040160019054906101000a900460ff16955095509550955095505091939590929450565b6000600360008373ffffffffffffffffffffffffffffffffffffffff1673ffffffffffffffffffffffffffffffffffffffff16815260200190815260200160002060009054906101000a900460ff169050919050565b60008060008060008060056000888152602001908152602001600020905080600001548160010154826002015483600301548460040160009054906101000a900460ff16955095509550955095505091939590929450565b6000600160003373ffffffffffffffffffffffffffffffffffffffff1673ffffffffffffffffffffffffffffffffffffffff16815260200190815260200160002060009054906101000a900460ff1680611f225750611ef36129cb565b73ffffffffffffffffffffffffffffffffffffffff163373ffffffffffffffffffffffffffffffffffffffff16145b1515611f96576040517f08c379a00000000000000000000000000000000000000000000000000000000081526004018080602001828103825260098152602001807f4e6f742061646d696e000000000000000000000000000000000000000000000081525060200191505060405180910390fd5b6002600083815260200190815260200160002060009054906101000a900460ff1615151561202c576040517f08c379a00000000000000000000000000000000000000000000000000000000081526004018080602001828103825260078152602001807f457869737465640000000000000000000000000000000000000000000000000081525060200191505060405180910390fd5b60016002600084815260200190815260200160002060006101000a81548160ff0219169083151502179055507f7e5f3f2629df1037f81016fbbc12813c1539446c3b7149622f17356b9e1952d5826040518082815260200191505060405180910390a160019050919050565b60008060008060008060008060008060068b8154811015156120b657fe5b906000526020600020906007020190506000600460008360020154815260200190815260200160002090506000600560008460010154815260200190815260200160002090508260020154836003015484600101548560000160009054906101000a900473ffffffffffffffffffffffffffffffffffffffff168560010160009054906101000a900473ffffffffffffffffffffffffffffffffffffffff168760040154866001015489600501548a60060160009054906101000a900460ff169b509b509b509b509b509b509b509b509b505050509193959799909294969850565b6000600160008373ffffffffffffffffffffffffffffffffffffffff1673ffffffffffffffffffffffffffffffffffffffff16815260200190815260200160002060009054906101000a900460ff169050919050565b6000600160003373ffffffffffffffffffffffffffffffffffffffff1673ffffffffffffffffffffffffffffffffffffffff16815260200190815260200160002060009054906101000a900460ff168061227a575061224b6129cb565b73ffffffffffffffffffffffffffffffffffffffff163373ffffffffffffffffffffffffffffffffffffffff16145b15156122ee576040517f08c379a00000000000000000000000000000000000000000000000000000000081526004018080602001828103825260098152602001807f4e6f742061646d696e000000000000000000000000000000000000000000000081525060200191505060405180910390fd5b600060056000858152602001908152602001600020905060008160010154111515612381576040517f08c379a00000000000000000000000000000000000000000000000000000000081526004018080602001828103825260138152602001807f506c616e20646f6573206e6f742065786973740000000000000000000000000081525060200191505060405180910390fd5b828160040160006101000a81548160ff0219169083151502179055508060000154847fdc0af4bf6f58ef8042f92aea6d7da53a65e1504731db459eb6b6d63f1f5e3d1b85604051808215151515815260200191505060405180910390a3600191505092915050565b6123f16129f4565b1515612465576040517f08c379a00000000000000000000000000000000000000000000000000000000081526004018080602001828103825260208152602001807f4f776e61626c653a2063616c6c6572206973206e6f7420746865206f776e657281525060200191505060405180910390fd5b600073ffffffffffffffffffffffffffffffffffffffff166000809054906101000a900473ffffffffffffffffffffffffffffffffffffffff1673ffffffffffffffffffffffffffffffffffffffff167f8be0079c531659141344cd1fd0a4f28419497f9722a3daafe3b4186f6b6457e060405160405180910390a360008060006101000a81548173ffffffffffffffffffffffffffffffffffffffff021916908373ffffffffffffffffffffffffffffffffffffffff160217905550565b6000600160003373ffffffffffffffffffffffffffffffffffffffff1673ffffffffffffffffffffffffffffffffffffffff16815260200190815260200160002060009054906101000a900460ff16806125b057506125816129cb565b73ffffffffffffffffffffffffffffffffffffffff163373ffffffffffffffffffffffffffffffffffffffff16145b1515612624576040517f08c379a00000000000000000000000000000000000000000000000000000000081526004018080602001828103825260098152602001807f4e6f742061646d696e000000000000000000000000000000000000000000000081525060200191505060405180910390fd5b6002600083815260200190815260200160002060009054906101000a900460ff1615156126b9576040517f08c379a000000000000000000000000000000000000000000000000000000000815260040180806020018281038252600e8152602001807f446f6573206e6f7420657869737400000000000000000000000000000000000081525060200191505060405180910390fd5b6002600083815260200190815260200160002060006101000a81549060ff02191690557fb72fecdeb43fc47c05173a6c83c3dcd6b5f0c19e20deab0ca813df4fadf5ee98826040518082815260200191505060405180910390a160019050919050565b60006002600083815260200190815260200160002060009054906101000a900460ff169050919050565b6000600160003373ffffffffffffffffffffffffffffffffffffffff1673ffffffffffffffffffffffffffffffffffffffff16815260200190815260200160002060009054906101000a900460ff16806127d257506127a36129cb565b73ffffffffffffffffffffffffffffffffffffffff163373ffffffffffffffffffffffffffffffffffffffff16145b1515612846576040517f08c379a00000000000000000000000000000000000000000000000000000000081526004018080602001828103825260098152602001807f4e6f742061646d696e000000000000000000000000000000000000000000000081525060200191505060405180910390fd5b600360008373ffffffffffffffffffffffffffffffffffffffff1673ffffffffffffffffffffffffffffffffffffffff16815260200190815260200160002060009054906101000a900460ff161515612907576040517f08c379a00000000000000000000000000000000000000000000000000000000081526004018080602001828103825260108152602001807f4e6f7420696e2077686974656c6973740000000000000000000000000000000081525060200191505060405180910390fd5b6000600360008473ffffffffffffffffffffffffffffffffffffffff1673ffffffffffffffffffffffffffffffffffffffff16815260200190815260200160002060006101000a81548160ff0219169083151502179055507f1f756c8b089af6b33ee121fee8badac2553a2fa89c0575ea91ff8792617746c282604051808273ffffffffffffffffffffffffffffffffffffffff1673ffffffffffffffffffffffffffffffffffffffff16815260200191505060405180910390a160019050919050565b60008060009054906101000a900473ffffffffffffffffffffffffffffffffffffffff16905090565b60008060009054906101000a900473ffffffffffffffffffffffffffffffffffffffff1673ffffffffffffffffffffffffffffffffffffffff16612a36614347565b73ffffffffffffffffffffffffffffffffffffffff1614905090565b6000600160003373ffffffffffffffffffffffffffffffffffffffff1673ffffffffffffffffffffffffffffffffffffffff16815260200190815260200160002060009054906101000a900460ff1680612ade5750612aaf6129cb565b73ffffffffffffffffffffffffffffffffffffffff163373ffffffffffffffffffffffffffffffffffffffff16145b1515612b52576040517f08c379a00000000000000000000000000000000000000000000000000000000081526004018080602001828103825260098152602001807f4e6f742061646d696e000000000000000000000000000000000000000000000081525060200191505060405180910390fd5b600082111515612bf0576040517f08c379a00000000000000000000000000000000000000000000000000000000081526004018080602001828103825260278152602001807f496e7465726573742072617465206d757374206265206772656174657220746881526020017f616e207a65726f0000000000000000000000000000000000000000000000000081525060400191505060405180910390fd5b6000600460008781526020019081526020016000209050600073ffffffffffffffffffffffffffffffffffffffff168160000160009054906101000a900473ffffffffffffffffffffffffffffffffffffffff1673ffffffffffffffffffffffffffffffffffffffff1614151515612cd0576040517f08c379a00000000000000000000000000000000000000000000000000000000081526004018080602001828103825260138152602001807f506f6f6c20646f6573206e6f742065786973740000000000000000000000000081525060200191505060405180910390fd5b60006005600087815260200190815260200160002060010154141515612d5e576040517f08c379a00000000000000000000000000000000000000000000000000000000081526004018080602001828103825260128152602001807f506c616e2069642069732065786973746564000000000000000000000000000081525060200191505060405180910390fd5b600084111515612dfc576040517f08c379a00000000000000000000000000000000000000000000000000000000081526004018080602001828103825260278152602001807f4c6f636b206475726174696f6e206d757374206265206772656174657220746881526020017f616e207a65726f0000000000000000000000000000000000000000000000000081525060400191505060405180910390fd5b6000612e276301e13380612e19868861406d90919063ffffffff16565b61413a90919063ffffffff16565b9050600081111515612ea1576040517f08c379a000000000000000000000000000000000000000000000000000000000815260040180806020018281038252601a8152602001807f496e746572657374207261746520697320746f6f20736d616c6c00000000000081525060200191505060405180910390fd5b612ea96146ba565b60a06040519081016040528089815260200187815260200186815260200183815260200160001515815250905080600560008981526020019081526020016000206000820151816000015560208201518160010155604082015181600201556060820151816003015560808201518160040160006101000a81548160ff02191690831515021790555090505087877ffa146f9ef777846c091d87ccc38ad1753c2d3c078d6f950c706a2dd647fd10a288888660405180848152602001838152602001828152602001935050505060405180910390a3869350505050949350505050565b6000612f966129f4565b151561300a576040517f08c379a00000000000000000000000000000000000000000000000000000000081526004018080602001828103825260208152602001807f4f776e61626c653a2063616c6c6572206973206e6f7420746865206f776e657281525060200191505060405180910390fd5b600160008373ffffffffffffffffffffffffffffffffffffffff1673ffffffffffffffffffffffffffffffffffffffff16815260200190815260200160002060009054906101000a900460ff161515156130cc576040517f08c379a00000000000000000000000000000000000000000000000000000000081526004018080602001828103825260078152602001807f457869737465640000000000000000000000000000000000000000000000000081525060200191505060405180910390fd5b60018060008473ffffffffffffffffffffffffffffffffffffffff1673ffffffffffffffffffffffffffffffffffffffff16815260200190815260200160002060006101000a81548160ff0219169083151502179055507f4c141abccf173677929dea054f218ed87362117834a8869ec9f68d8bdaaea1dc82604051808273ffffffffffffffffffffffffffffffffffffffff1673ffffffffffffffffffffffffffffffffffffffff16815260200191505060405180910390a160019050919050565b6000600160003373ffffffffffffffffffffffffffffffffffffffff1673ffffffffffffffffffffffffffffffffffffffff16815260200190815260200160002060009054906101000a900460ff168061321b57506131ec6129cb565b73ffffffffffffffffffffffffffffffffffffffff163373ffffffffffffffffffffffffffffffffffffffff16145b151561328f576040517f08c379a00000000000000000000000000000000000000000000000000000000081526004018080602001828103825260098152602001807f4e6f742061646d696e000000000000000000000000000000000000000000000081525060200191505060405180910390fd5b6000600460008881526020019081526020016000209050600073ffffffffffffffffffffffffffffffffffffffff168160000160009054906101000a900473ffffffffffffffffffffffffffffffffffffffff1673ffffffffffffffffffffffffffffffffffffffff1614151561336e576040517f08c379a00000000000000000000000000000000000000000000000000000000081526004018080602001828103825260078152602001807f457869737465640000000000000000000000000000000000000000000000000081525060200191505060405180910390fd5b858160050190805190602001906133869291906146ec565b50848160010160006101000a81548173ffffffffffffffffffffffffffffffffffffffff021916908373ffffffffffffffffffffffffffffffffffffffff160217905550838160020181905550838160030181905550828160040160016101000a81548160ff021916908315150217905550338160000160006101000a81548173ffffffffffffffffffffffffffffffffffffffff021916908373ffffffffffffffffffffffffffffffffffffffff16021790555080600460008981526020019081526020016000206000820160009054906101000a900473ffffffffffffffffffffffffffffffffffffffff168160000160006101000a81548173ffffffffffffffffffffffffffffffffffffffff021916908373ffffffffffffffffffffffffffffffffffffffff1602179055506001820160009054906101000a900473ffffffffffffffffffffffffffffffffffffffff168160010160006101000a81548173ffffffffffffffffffffffffffffffffffffffff021916908373ffffffffffffffffffffffffffffffffffffffff16021790555060028201548160020155600382015481600301556004820160009054906101000a900460ff168160040160006101000a81548160ff0219169083151502179055506004820160019054906101000a900460ff168160040160016101000a81548160ff021916908315150217905550600582018160050190805460018160011615610100020316600290046135b292919061476c565b509050508060010160009054906101000a900473ffffffffffffffffffffffffffffffffffffffff1673ffffffffffffffffffffffffffffffffffffffff16877ffbc254c5be3acf9c9bbe560079197f49e3d596d01e61ecd16b9c71bab1ea53b48884600201548560040160019054906101000a900460ff16604051808060200184815260200183151515158152602001828103825285818151815260200191508051906020019080838360005b8381101561367b578082015181840152602081019050613660565b50505050905090810190601f1680156136a85780820380516001836020036101000a031916815260200191505b5094505050505060405180910390a38691505095945050505050565b60006136ce6129f4565b1515613742576040517f08c379a00000000000000000000000000000000000000000000000000000000081526004018080602001828103825260208152602001807f4f776e61626c653a2063616c6c6572206973206e6f7420746865206f776e657281525060200191505060405180910390fd5b600160008373ffffffffffffffffffffffffffffffffffffffff1673ffffffffffffffffffffffffffffffffffffffff16815260200190815260200160002060009054906101000a900460ff161515613803576040517f08c379a000000000000000000000000000000000000000000000000000000000815260040180806020018281038252600e8152602001807f446f6573206e6f7420657869737400000000000000000000000000000000000081525060200191505060405180910390fd5b600160008373ffffffffffffffffffffffffffffffffffffffff1673ffffffffffffffffffffffffffffffffffffffff16815260200190815260200160002060006101000a81549060ff02191690557f6b4be2dd49eba45ba43390fbe7da13e2b965d255db41d6a0fcf6d2e15ac1fccb82604051808273ffffffffffffffffffffffffffffffffffffffff1673ffffffffffffffffffffffffffffffffffffffff16815260200191505060405180910390a160019050919050565b6000600160003373ffffffffffffffffffffffffffffffffffffffff1673ffffffffffffffffffffffffffffffffffffffff16815260200190815260200160002060009054906101000a900460ff168061394a575061391b6129cb565b73ffffffffffffffffffffffffffffffffffffffff163373ffffffffffffffffffffffffffffffffffffffff16145b15156139be576040517f08c379a00000000000000000000000000000000000000000000000000000000081526004018080602001828103825260098152602001807f4e6f742061646d696e000000000000000000000000000000000000000000000081525060200191505060405180910390fd5b6000600460008581526020019081526020016000209050600073ffffffffffffffffffffffffffffffffffffffff168160000160009054906101000a900473ffffffffffffffffffffffffffffffffffffffff1673ffffffffffffffffffffffffffffffffffffffff1614151515613a9e576040517f08c379a00000000000000000000000000000000000000000000000000000000081526004018080602001828103825260138152602001807f506f6f6c20646f6573206e6f742065786973740000000000000000000000000081525060200191505060405180910390fd5b828160040160016101000a81548160ff021916908315150217905550837f8bd6c47c6c76f1faed9f6f4aba4f8bb8bc77831ad6e446046de41a02d7c169dc84604051808215151515815260200191505060405180910390a25092915050565b6000600160003373ffffffffffffffffffffffffffffffffffffffff1673ffffffffffffffffffffffffffffffffffffffff16815260200190815260200160002060009054906101000a900460ff1680613b895750613b5a6129cb565b73ffffffffffffffffffffffffffffffffffffffff163373ffffffffffffffffffffffffffffffffffffffff16145b1515613bfd576040517f08c379a00000000000000000000000000000000000000000000000000000000081526004018080602001828103825260098152602001807f4e6f742061646d696e000000000000000000000000000000000000000000000081525060200191505060405180910390fd5b600360008373ffffffffffffffffffffffffffffffffffffffff1673ffffffffffffffffffffffffffffffffffffffff16815260200190815260200160002060009054906101000a900460ff16151515613cbf576040517f08c379a00000000000000000000000000000000000000000000000000000000081526004018080602001828103825260148152602001807f416c726561647920696e2077686974656c69737400000000000000000000000081525060200191505060405180910390fd5b6001600360008473ffffffffffffffffffffffffffffffffffffffff1673ffffffffffffffffffffffffffffffffffffffff16815260200190815260200160002060006101000a81548160ff0219169083151502179055507f75b2135d1c8c3519f3c09c43fe6527089ef09f40c7981ebf0ed46e79e79032c782604051808273ffffffffffffffffffffffffffffffffffffffff1673ffffffffffffffffffffffffffffffffffffffff16815260200191505060405180910390a160019050919050565b613d8b6129f4565b1515613dff576040517f08c379a00000000000000000000000000000000000000000000000000000000081526004018080602001828103825260208152602001807f4f776e61626c653a2063616c6c6572206973206e6f7420746865206f776e657281525060200191505060405180910390fd5b613e088161434f565b50565b600060608383604051602401808373ffffffffffffffffffffffffffffffffffffffff1673ffffffffffffffffffffffffffffffffffffffff168152602001828152602001925050506040516020818303038152906040527fa9059cbb000000000000000000000000000000000000000000000000000000007bffffffffffffffffffffffffffffffffffffffffffffffffffffffff19166020820180517bffffffffffffffffffffffffffffffffffffffffffffffffffffffff8381831617835250505050905060008573ffffffffffffffffffffffffffffffffffffffff16826040518082805190602001908083835b602083101515613f225780518252602082019150602081019050602083039250613efd565b6001836020036101000a0380198251168184511680821785525050505050509050019150506000604051808303816000865af19150503d8060008114613f84576040519150601f19603f3d011682016040523d82523d6000602084013e613f89565b606091505b5050905080925050509392505050565b6000613fdb83836040805190810160405280601e81526020017f536166654d6174683a207375627472616374696f6e206f766572666c6f7700008152506144d8565b905092915050565b6000808284019050838110151515614063576040517f08c379a000000000000000000000000000000000000000000000000000000000815260040180806020018281038252601b8152602001807f536166654d6174683a206164646974696f6e206f766572666c6f77000000000081525060200191505060405180910390fd5b8091505092915050565b6000808314156140805760009050614134565b6000828402905082848281151561409357fe5b0414151561412f576040517f08c379a00000000000000000000000000000000000000000000000000000000081526004018080602001828103825260218152602001807f536166654d6174683a206d756c7469706c69636174696f6e206f766572666c6f81526020017f770000000000000000000000000000000000000000000000000000000000000081525060400191505060405180910390fd5b809150505b92915050565b600061417c83836040805190810160405280601a81526020017f536166654d6174683a206469766973696f6e206279207a65726f00000000000081525061459a565b905092915050565b60006060848484604051602401808473ffffffffffffffffffffffffffffffffffffffff1673ffffffffffffffffffffffffffffffffffffffff1681526020018373ffffffffffffffffffffffffffffffffffffffff1673ffffffffffffffffffffffffffffffffffffffff16815260200182815260200193505050506040516020818303038152906040527f23b872dd000000000000000000000000000000000000000000000000000000007bffffffffffffffffffffffffffffffffffffffffffffffffffffffff19166020820180517bffffffffffffffffffffffffffffffffffffffffffffffffffffffff8381831617835250505050905060008673ffffffffffffffffffffffffffffffffffffffff16826040518082805190602001908083835b6020831015156142cf57805182526020820191506020810190506020830392506142aa565b6001836020036101000a0380198251168184511680821785525050505050509050019150506000604051808303816000865af19150503d8060008114614331576040519150601f19603f3d011682016040523d82523d6000602084013e614336565b606091505b505090508092505050949350505050565b600033905090565b600073ffffffffffffffffffffffffffffffffffffffff168173ffffffffffffffffffffffffffffffffffffffff161415151561441a576040517f08c379a00000000000000000000000000000000000000000000000000000000081526004018080602001828103825260268152602001807f4f776e61626c653a206e6577206f776e657220697320746865207a65726f206181526020017f646472657373000000000000000000000000000000000000000000000000000081525060400191505060405180910390fd5b8073ffffffffffffffffffffffffffffffffffffffff166000809054906101000a900473ffffffffffffffffffffffffffffffffffffffff1673ffffffffffffffffffffffffffffffffffffffff167f8be0079c531659141344cd1fd0a4f28419497f9722a3daafe3b4186f6b6457e060405160405180910390a3806000806101000a81548173ffffffffffffffffffffffffffffffffffffffff021916908373ffffffffffffffffffffffffffffffffffffffff16021790555050565b60008383111582901515614587576040517f08c379a00000000000000000000000000000000000000000000000000000000081526004018080602001828103825283818151815260200191508051906020019080838360005b8381101561454c578082015181840152602081019050614531565b50505050905090810190601f1680156145795780820380516001836020036101000a031916815260200191505b509250505060405180910390fd5b5060008385039050809150509392505050565b600080831182901515614648576040517f08c379a00000000000000000000000000000000000000000000000000000000081526004018080602001828103825283818151815260200191508051906020019080838360005b8381101561460d5780820151818401526020810190506145f2565b50505050905090810190601f16801561463a5780820380516001836020036101000a031916815260200191505b509250505060405180910390fd5b506000838581151561465657fe5b049050809150509392505050565b60e060405190810160405280600073ffffffffffffffffffffffffffffffffffffffff16815260200160008152602001600081526020016000815260200160008152602001600081526020016000151581525090565b60a060405190810160405280600081526020016000815260200160008152602001600081526020016000151581525090565b828054600181600116156101000203166002900490600052602060002090601f016020900481019282601f1061472d57805160ff191683800117855561475b565b8280016001018555821561475b579182015b8281111561475a57825182559160200191906001019061473f565b5b50905061476891906147f3565b5090565b828054600181600116156101000203166002900490600052602060002090601f016020900481019282601f106147a557805485556147e2565b828001600101855582156147e257600052602060002091601f016020900482015b828111156147e15782548255916001019190600101906147c6565b5b5090506147ef91906147f3565b5090565b61481591905b808211156148115760008160009055506001016147f9565b5090565b9056fea165627a7a723058204b4a7befb0a4a378c0a7fb1dc6193d8ead025fe253a3f322325135c184480b3f0029",
  "source": "pragma solidity ^0.5.0;\nimport \"../PoolInterface.sol\";\nimport \"../storage/LockingStorage.sol\";\nimport \"../ownership/Operation.sol\";\nimport \"@openzeppelin/contracts/math/SafeMath.sol\";\n\n\n/**\n * Certificate of deposit\n * Users deposit by pre-defined packages\n */\n\ncontract Locking is Operation, LockingStorage {\n    using SafeMath for uint256;\n\n    constructor() Operation() public {\n\n    }\n\n    /**\n     * Create a new pool\n     */\n    function createPool(\n        uint256 _poolId,\n        string memory _poolName,\n        address _tokenAddr,\n        uint256 _reserveTokenAmount,\n        bool _needWhitelist\n    ) public onlyAdmin() returns(uint) {\n        Pool storage p = pools[_poolId];\n        require(p.owner == address(0), \"Existed\");\n        // Pool memory p;\n        p.name = _poolName;\n        p.tokenAddr = _tokenAddr;\n        p.reserveTokenAmount = _reserveTokenAmount;\n        p.availableTokenAmount = _reserveTokenAmount;\n        p.needWhitelist = _needWhitelist;\n        p.owner = msg.sender;\n\n        pools[_poolId] = p;\n\n        emit CreatePool(_poolId, _poolName, p.tokenAddr, p.reserveTokenAmount, p.needWhitelist);\n\n        return _poolId;\n    }\n\n    function changePoolReserveAmount(uint256 _poolId, uint256 _newAmount) public onlyAdmin() returns(bool) {\n        Pool storage p = pools[_poolId];\n        require(p.owner != address(0), \"Pool does not exist\");\n        if (_newAmount >= p.reserveTokenAmount) {\n            uint256 addAmount = _newAmount.sub(p.reserveTokenAmount);\n            p.availableTokenAmount = p.availableTokenAmount.add(addAmount);\n        } else {\n            uint256 reduceAmount = p.reserveTokenAmount.sub(_newAmount);\n            require(reduceAmount <= p.availableTokenAmount, \"Reduce amount is too big\");\n\n            p.availableTokenAmount = p.availableTokenAmount.sub(reduceAmount);\n        }\n        p.reserveTokenAmount = _newAmount;\n        emit ChangePoolReserveAmount(_poolId, _newAmount, p.availableTokenAmount);\n    }\n\n    function changePoolWhitelistNeed(uint256 _poolId, bool _needWhitelist) public onlyAdmin() returns(bool) {\n        Pool storage p = pools[_poolId];\n        require(p.owner != address(0), \"Pool does not exist\");\n        p.needWhitelist = _needWhitelist;\n        emit ChangePoolWhitelist(_poolId, _needWhitelist);\n    }\n    function changePoolStatus(uint256 _poolId, bool _isClosed) public onlyAdmin() returns(bool) {\n        Pool storage p = pools[_poolId];\n        require(p.owner != address(0), \"Pool does not exist\");\n        p.isClosed = _isClosed;\n        emit ChangePoolStatus(_poolId, _isClosed);\n    }\n\n    /**\n     * Add a new plan to a pool\n     */\n    function addPlan(\n        uint256 _poolId,\n        uint256 _planId,\n        uint256 _lockDuration,\n        uint256 _annualInterestRate\n    ) public onlyAdmin() returns(uint256 planId){\n        require(_annualInterestRate > 0, \"Interest rate must be greater than zero\");\n        Pool storage p = pools[_poolId];\n        require(p.owner != address(0), \"Pool does not exist\");\n\n        require(plans[_planId].duration == 0, \"Plan id is existed\");\n        require(_lockDuration > 0, \"Lock duration must be greater than zero\");\n        uint256 interestRate = _lockDuration.mul(_annualInterestRate).div(SECONDS_PER_YEAR);\n        require(interestRate > 0, \"Interest rate is too small\");\n        Plan memory plan = Plan({\n            poolId: _poolId,\n            duration: _lockDuration,\n            annualInterestRate: _annualInterestRate,\n            interestRate: interestRate,\n            isClosed: false\n        });\n        plans[_planId] = plan;\n\n        emit AddPlan(_planId, _poolId,_lockDuration, _annualInterestRate, interestRate);\n        return _planId;\n    }\n\n    /**\n     * Change status of a plan in a pool\n     * Set status=true to disable a plan\n     */\n    function changePlanStatus(uint256 _planId, bool _isClosed) public onlyAdmin() returns(bool) {\n        Plan storage plan = plans[_planId];\n\n        require(plan.duration > 0, \"Plan does not exist\");\n\n        plan.isClosed = _isClosed;\n\n        emit ChangePlanStatus(_planId, plan.poolId, _isClosed);\n\n        return true;\n    }\n\n    function addToWhitelist(address _addr) public onlyAdmin() returns(bool) {\n        require(!whitelist[_addr], \"Already in whitelist\");\n        whitelist[_addr] = true;\n        emit AddToWhitelist(_addr);\n        return true;\n    }\n    function removeFromWhitelist(address _addr) public onlyAdmin() returns(bool) {\n        require(whitelist[_addr], \"Not in whitelist\");\n        whitelist[_addr] = false;\n        emit RemoveFromWhitelist(_addr);\n        return true;\n    }\n\n    /**\n     * Deposit token to a pool\n     */\n    function deposit(uint256 _poolId, uint256 _partnerId, uint256 _planId, uint256 _tokenAmount) external returns(uint256 depositId) {\n        Pool storage p = pools[_poolId];\n        require(p.owner != address(0), \"Pool does not exist\");\n        require(!p.isClosed, \"Pool is closed\");\n\n        if (p.needWhitelist) {\n            require(whitelist[msg.sender], \"Not in whitelist\");\n        }\n\n        Plan storage plan = plans[_planId];\n        require(plan.duration > 0, \"Plan does not exist\");\n        require(!plan.isClosed, \"Plan is closed\");\n\n        require(partners[_partnerId], \"Partner does not exist\");\n\n        uint256 estimateInterest = plan.interestRate.mul(_tokenAmount).div(interestBase);\n        require(estimateInterest > 0, \"Deposit amount is too small\");\n        require(estimateInterest <= p.availableTokenAmount, \"Insufficient avaiable token in pool\");\n        p.availableTokenAmount = p.availableTokenAmount.sub(estimateInterest);\n\n        // Transfer token\n        bool transferred = _executeTransferFrom(p.tokenAddr, msg.sender, address(this), _tokenAmount);\n        require(transferred, \"Can not transfer token\");\n\n        DepositInfo memory d;\n        d.owner = msg.sender;\n        d.poolId = _poolId;\n        d.planId = _planId;\n        d.partnerId = _partnerId;\n        d.amount = _tokenAmount;\n        d.depositAt = block.timestamp;\n\n        depositId = deposits.length;\n        deposits.push(d);\n\n        emit Deposit(_poolId, _planId, _partnerId, depositId, d.owner, p.tokenAddr, d.amount, d.depositAt);\n\n        return depositId;\n    }\n\n    /**\n     * Close a deposit and withdraw token.\n     */\n    function withdraw(uint256 _depositId, address _recipientAddr) external returns(bool) {\n        DepositInfo storage d = deposits[_depositId];\n        require(d.owner == msg.sender, \"Not depositor\");\n        require(!d.isClosed, \"Is closed\");\n\n        // Check mature\n        Pool storage p = pools[d.poolId];\n        Plan storage plan = plans[d.planId];\n        uint256 matureTime = plan.duration + d.depositAt;\n\n        require(matureTime <= block.timestamp, \"Immature\");\n\n        // Send token\n        bool transferred = _executeTransfer(p.tokenAddr, _recipientAddr, d.amount);\n        require(transferred, \"Can not transfer token\");\n\n        deposits[_depositId].isClosed = true;\n\n        emit Withdraw(\n            d.poolId,\n            d.planId,\n            d.partnerId,\n            _depositId,\n            p.tokenAddr,\n            d.owner,\n            _recipientAddr,\n            d.amount\n        );\n        return true;\n    }\n\n    /**\n     * Get info of a pool\n     */\n    function getPoolInfo(uint256 _poolId) external view returns(address, uint256, uint256, bool, bool) {\n        Pool storage p = pools[_poolId];\n\n        return (\n            p.tokenAddr,\n            p.reserveTokenAmount,\n            p.availableTokenAmount,\n            p.isClosed,\n            p.needWhitelist\n        );\n    }\n\n    /**\n     * Get info of a plan\n     */\n    function getPlanInfo(uint256 _planId) external view returns(uint256, uint256, uint256, uint256, bool) {\n        Plan storage plan = plans[_planId];\n\n        return (\n            plan.poolId,\n            plan.duration,\n            plan.annualInterestRate,\n            plan.interestRate,\n            plan.isClosed\n        );\n    }\n\n    /**\n     * Get info of a deposit\n     */\n    function getDepositInfo(\n        uint256 _depositId\n    ) external view returns(\n        uint256,\n        uint256,\n        uint256,\n        address,\n        address,\n        uint256,\n        uint256,\n        uint256,\n        bool\n    ) {\n        DepositInfo storage d = deposits[_depositId];\n        Pool storage p = pools[d.poolId];\n        Plan storage plan = plans[d.planId];\n\n        return (\n            d.poolId,\n            d.partnerId,\n            d.planId,\n            d.owner,\n            p.tokenAddr,\n            d.amount,\n            plan.duration,\n            d.depositAt,\n            d.isClosed\n        );\n    }\n\n    function getWhitelist(address _addr) public view returns(bool) {\n        return whitelist[_addr];\n    }\n\n    function _executeTransferFrom(address tokenAddr, address from, address to, uint256 amount) internal returns(bool){\n        bytes memory payload = abi.encodeWithSignature(\"transferFrom(address,address,uint256)\", from, to, amount);\n        (bool succ,) = tokenAddr.call(payload);\n        return succ;\n    }\n\n    function _executeTransfer(address tokenAddr, address to, uint256 amount) internal returns(bool){\n        bytes memory payload = abi.encodeWithSignature(\"transfer(address,uint256)\", to, amount);\n        (bool succ,) = tokenAddr.call(payload);\n        return succ;\n    }\n\n\n}",
  "sourcePath": "/home/phu/Documents/Code/staking/sc-erc20-staking/contracts/pools/Locking.sol",
  "compiler": {
    "name": "solc",
    "version": "0.5.0+commit.1d4f565a.Emscripten.clang"
  },
  "schemaVersion": "3.0.16",
  "updatedAt": "2020-03-11T07:33:04.850Z",
  "devdoc": {
    "methods": {
      "isOwner()": {
        "details": "Returns true if the caller is the current owner."
      },
      "owner()": {
        "details": "Returns the address of the current owner."
      },
      "renounceOwnership()": {
        "details": "Leaves the contract without owner. It will not be possible to call `onlyOwner` functions anymore. Can only be called by the current owner.     * NOTE: Renouncing ownership will leave the contract without an owner, thereby removing any functionality that is only available to the owner."
      },
      "transferOwnership(address)": {
        "details": "Transfers ownership of the contract to a new account (`newOwner`). Can only be called by the current owner."
      }
    }
  },
  "userdoc": {
    "methods": {
      "addOperator(address)": {
        "notice": "Grant creating pool permission to an address"
      },
      "addPlan(uint256,uint256,uint256,uint256)": {
        "notice": "Add a new plan to a pool"
      },
      "changePlanStatus(uint256,bool)": {
        "notice": "Change status of a plan in a pool Set status=true to disable a plan"
      },
      "createPool(uint256,string,address,uint256,bool)": {
        "notice": "Create a new pool"
      },
      "deposit(uint256,uint256,uint256,uint256)": {
        "notice": "Deposit token to a pool"
      },
      "getDepositInfo(uint256)": {
        "notice": "Get info of a deposit"
      },
      "getPlanInfo(uint256)": {
        "notice": "Get info of a plan"
      },
      "getPoolInfo(uint256)": {
        "notice": "Get info of a pool"
      },
      "removeOperator(address)": {
        "notice": "Revoke creating pool permission of an address"
      },
      "withdraw(uint256,address)": {
        "notice": "Close a deposit and withdraw token."
      }
    },
    "notice": "Certificate of deposit Users deposit by pre-defined packages"
  }
}